:020000040800F2
:100000001809002091020008B50C000885020008BC
:10001000B10C00088D0B0008FF1100080000000063
:100020000000000000000000000000005D0E00085D
:10003000910B000800000000310D0008750F00084A
:10004000AB020008AB020008AB020008AB020008DC
:10005000AB020008AB020008AB020008AB020008CC
:10006000AB020008AB020008AB020008AB020008BC
:10007000AB020008AB020008AB020008AB020008AC
:10008000AB020008AB020008AB020008AB0200089C
:10009000AB020008AB020008AB020008AB0200088C
:1000A000AB020008AB020008AB020008AB0200087C
:1000B000AB020008AB020008AB020008AB0200086C
:1000C000AB020008AB020008AB020008AB0200085C
:1000D000AB020008E10F0008AB020008AB02000809
:1000E000AB020008AB020008AB020008AB0200083C
:1000F000AB020008AB020008AB020008AB0200082C
:10010000AB020008AB020008AB020008AB0200081B
:10011000AB020008AB020008AB020008AB0200080B
:10012000AB020008AB020008AB020008AB020008FB
:10013000AB020008AB020008AB020008AB020008EB
:10014000AB020008AB020008AB020008AB020008DB
:10015000AB020008AB020008AB020008AB020008CB
:10016000AB020008AB020008AB020008AB020008BB
:10017000AB020008AB020008AB020008AB020008AB
:10018000AB020008AB02000800F002F800F06AF8C9
:100190000AA090E8000C82448344AAF10107DA45E2
:1001A00001D100F05FF8AFF2090EBAE80F0013F0CA
:1001B000010F18BFFB1A43F0010318475823000032
:1001C00078230000103A24BF78C878C1FAD85207C3
:1001D00024BF30C830C144BF04680C6070470000C1
:1001E0000023002400250026103A28BF78C1FBD840
:1001F000520728BF30C148BF0B6070476E2900F01E
:100200002781702900F0F481692900F0E5806429D4
:1002100000F0E280752900F0DF806F2900F08A810C
:10022000782900F0D8810368DB0928BF41F08001FC
:10023000632900F0B483732900F0B983E32900F047
:10024000D783002070471FB501F034FD00F050FC4B
:1002500004000020002101F017FD401C60601FBD5C
:1002600010B510BD00F01EFC1146FFF7ECFF01F0C9
:1002700019FC00F041FC03B4FFF7F2FF03BC00F0EF
:10028000C7FF00007046694601F03EF8FFF7FEFF29
:100290000948804709480047FEE7FEE7FEE7FEE71A
:1002A000FEE7FEE7FEE7FEE7FEE7FEE70448054956
:1002B000054A064B70470000790F000889010008C5
:1002C0001803002018090020180500201805002038
:1002D000704700000FB4044910B503AA029800F05B
:1002E0006BFB10BC5DF814FB040000200FB41CB5C0
:1002F000074B06AA7B4469460090059800F02DFB49
:100300000020694600F03CFB1CBC5DF814FB0000BB
:100310008906000070B5044685690068C10601D5EC
:10032000302600E02026C00707D070BDD4E90121A7
:1003300030469047206A401C20626D1EF6D570BD85
:1003400070B5044685690078C00707D170BDD4E94F
:10035000012120209047206A401C20626D1EF6D5A6
:1003600070BD09684A0501D540B27047C905FCD582
:1003700000B2704709684A0501D5C0B27047C90587
:10038000FCD580B2704770B50C460546012A05D0F1
:100390002878800600D5EA69002302E0012305E001
:1003A0005B1C934202D2E05C0028F9D1A869E618F0
:1003B000C01AA861286A184428622846FFF7AAFFD5
:1003C00004E0D5E9012114F8010B9047B442F8D3B9
:1003D0002846FFF7B5FF70BD2DE9F0410646002421
:1003E00010687529314616A510D0FFF7BAFF00280E
:1003F00002DA404213A507E031688A0701D512A549
:1004000002E0490704D511A5012401E0FFF7B2FF7E
:1004100000210A2206F1240709E0B0FBF2FCB0FB40
:10042000F2F302FB1C00303078541846491C0028B7
:10043000F3D123462A463046BDE8F04100F02EBAFB
:10044000000000002D0000002B0000002000000034
:1004500011680268006A530501D508700AE0D305E7
:1004600001D5088006E0130603D5C217C1E90002D2
:1004700000E00860012070472DE9FF5F15468A46BD
:100480000446DFF8AC80F8440027D8E900103E4667
:10049000CDE9001010E03AF816106A4602A800F004
:1004A000B3FA411C07D02178890603D5E2693918CF
:1004B00091420DD80744761C2078800602D5E06969
:1004C000B84205DDAE42E6DB3AF816000028E2D17C
:1004D000A069C01BA0612046FFF71CFFD8E90010EF
:1004E000CDE90010002017E03AF818106A4602A87B
:1004F00000F08AFAB0F1FF3F81460BD000250DF1E4
:10050000080B05E0D4E901211BF8050090476D1C9C
:100510004D45F7D308F10100B0428046E4DB206A84
:10052000384420622046FFF70BFFBDE8FF9F000024
:100530007E18000070B5044621461068FFF71AFFC8
:10054000002104F1240505E000F007023032C00864
:100550006A54491C0028F7D12068002308A2050727
:1005600008D500F02000084304D0E069012305A26B
:10057000401EE0612046BDE8704000F08FB90000E9
:100580000000000030000000F0B40D4601880905AD
:1005900002D51B4C7C4402E0194C7C440E340021F3
:1005A00000F1240305E002F00F061209A65D5E5477
:1005B000491C002AF7D102780023120704D5702DB8
:1005C00006D009B1022311342246F0BC00F066B90E
:1005D00001231034F8E770B504460D462146106833
:1005E000FFF7C8FE024629462046BDE87040CBE72B
:1005F0000368126843F0200303600823C361C3E764
:10060000781700002DE9F05F894604464FF0000A94
:10061000DFF874B1FB44C0F820A02046E1688847A9
:10062000002874D0252806D0D4E901219047206AFB
:10063000401C2062F1E700265F462046E1688847BB
:100640002028054607DB312D05D2781910F8200C3B
:1006500008B10643F1E7B00701D526F00406C4F857
:100660001CA00027C4F818A02A2D09D0284600F0A5
:10067000C8FD38B304EB8708303DC8F8185019E0BE
:1006800059F8041B204604EB87029161E168884712
:10069000012F054618D1E069002820DA26F020064F
:1006A0001DE0D8F8180000EB800005EB4000303862
:1006B000C8F818002046E1688847054600F0A1FD0B
:1006C0000028EED1012F0AD02E2D08D12046E16856
:1006D00088477F1C0546022F46F02006C4DBA06930
:1006E000002803DA404246F00106A061F00701D07D
:1006F00026F010066C2D0BD0682D09D04C2D39D06A
:100700006A2D35D0742D35D07A2D33D016E038E0EF
:10071000E1682F4620468847B842054609D16C2F2C
:1007200026D04FF48060E16806432046884705469E
:1007300004E06C2F1AD04FF4807006430DB3A5F17E
:100740004100192802D8203546F400664A46294659
:10075000204626604E46FFF751FD80B101280BD0A0
:10076000F61D26F0070000F1080956E74020E4E7EF
:100770008020D8E70020D6E706F104094DE7284697
:1007800052E7206ABDE8F09F2017000010B5203A1C
:10079000C0F00B80B1E81850203AA0E81850B1E83A
:1007A0001850A0E81850BFF4F5AF5FEA027C24BFF0
:1007B000B1E81850A0E8185044BF18C918C0BDE8E7
:1007C00010405FEA827C24BF51F8043B40F8043BB0
:1007D00008BF7047D20728BF31F8023B48BF11F865
:1007E000012B28BF20F8023B48BF00F8012B7047BF
:1007F0004FF0000200B5134694469646203922BFBA
:10080000A0E80C50A0E80C50B1F12001BFF4F7AF04
:10081000090728BFA0E80C5048BF0CC05DF804EBE6
:10082000890028BF40F8042B08BF704748BF20F854
:10083000022B11F0804F18BF00F8012B704710B544
:10084000044610F0030F08BF11F0030F40F01580AD
:100850004FF0013E121FC0F20E8051F8043BA3EB93
:100860000E0C2CEA030C1CEACE1C08BF40F8043B1B
:10087000F0D0A1F1040102F10402521E08DB11F8CC
:10088000013B002B00F8013BF7D1114600F0DCF8EA
:10089000204610BD70477047704770472DE9F047FC
:1008A0000D4699469246044600F1240801688806E0
:1008B00004D5E06921F01001216000E00120A84288
:1008C00001DD471B00E00027A1697A1902EB09004E
:1008D000081AA0612078C00602D42046FFF71AFD4E
:1008E000002608E0D4E901211AF806009047206AA2
:1008F000401C761C20624E45F4DB2078C0060AD5E9
:100900002046FFF707FD06E0D4E90121302090479B
:10091000206A401C2062381EA7F10107F4DC07E0C2
:10092000D4E9012118F805009047206A401C206294
:10093000281EA5F10105F3DC2046FFF701FD207814
:10094000000602D50220BDE8F0870120FBE7000089
:1009500001694A1C02610878704700B58FB0CDE983
:1009600001310021059105497944CDE90310114673
:100970006846FFF747FE0FB000BD0000E5FFFFFF30
:100980000A6802F8010B0A60704710B5436913B199
:10099000AFF3008001E0FFF7F6FC012010BD1278F4
:1009A00000F124010A7000224A700122EDE711686B
:1009B0004FF0FF32E9E70000074B70B50D467B446E
:1009C000FFF7CBFF0446284600F068F810B14FF05F
:1009D000FF3070BD204670BDC710000010B54369E0
:1009E00013B1AFF3008001E0FFF746FD012010BD19
:1009F000128800F1240182840022C2840122EDE7E2
:100A000011684FF0FF32E9E770B516460C4605460F
:100A100000F03CF8036893F80101012806D0FF2C90
:100A20000FD8185D68B101202C7070BDD3F8070194
:100A30003246214603F2071303442846BDE87040BE
:100A400018474FF0FF3070BD4FF000020429C0F08E
:100A5000128010F0030C3FF4CDAECCF1040CBCF1CD
:100A6000020F18BF00F8012BA8BF20F8022BA1EB42
:100A70000C01FFF7BFBE5FEAC17C24BF00F8012B69
:100A800000F8012B48BF00F8012B704710B500F0AB
:100A90002FF8001D10BD00BFF1110000007B00F019
:100AA00080007047754600F02DF8AE460500694697
:100AB000534620F00700854618B020B5FFF7F6FB37
:100AC000BDE820404FF000064FF000074FF000084F
:100AD0004FF0000B21F00701AC46ACE8C009ACE8D0
:100AE000C009ACE8C009ACE8C0098D4670470000F9
:100AF00000487047D80200200446AFF3008020462B
:100B0000FFF7B9FB00487047B80200204FF0013CE6
:100B100050F8042B51F8043B9A4221D1A2EB0C036C
:100B2000934313EACC1317D150F8042B51F8043B2C
:100B30009A4215D1A2EB0C03934313EACC130BD1C9
:100B400050F8042B51F8043B9A4209D1A2EB0C0354
:100B5000934313EACC13DBD04FF00000704700BF83
:100B6000D01A01BAB1FA81F101F0180122FA01F0AC
:100B7000CB40C1F12001DBB2C0B2C01A2CFA01F3A4
:100B8000D11A914311EAC311E6D1704700BFFEE7C5
:100B90007047F0B50A4600210023002400BF3DE065
:100BA000012505FA01F3156805EA03049C4234D1D6
:100BB00005684F000326BE40B543056015794E0019
:100BC000B5400668354305601579012D02D01579C9
:100BD000022D16D185684F000326BE40B5438560BF
:100BE00055794E00B54086683543856045680126D5
:100BF0008E40B5434560456896798E40B6B2354320
:100C00004560C5684F000326BE40B543C560D57931
:100C10004E00B540C6683543C560491C1029BFD396
:100C2000F0BDF0B5002300244D07ED0E02FA05F3E8
:100C3000CE1000F1200555F826504E07F70E0F266E
:100C4000BE40B543CF1000F1200646F82750CE1025
:100C500000F1200555F8265045EA0304CE1000F1B6
:100C6000200545F82640F0BD418370470183704759
:100C70001CB50121202000F05DF84FF4C060009009
:100C800001208DF8040000208DF8060003208DF867
:100C9000050001208DF8070069460448FFF779FF39
:100CA0004FF4C0610148FFF7E1FF1CBD0014024092
:100CB00000BFFEE77047000070B5002100230F223F
:100CC000C4781CB3174C246804F4E064C4F5E064F1
:100CD000C4F30721C1F10404E3B20A4144789C4003
:100CE000E1B28478144021430C07210E0E4C0578A4
:100CF0006155047804F01F050124AC4005786D119E
:100D0000AD0005F1E025C5F8004109E0047804F0E4
:100D10001F050124AC40054D0678761145F82640A4
:100D200070BD00000CED00E000E400E080E100E0B8
:100D30007047000029B1064A12680243044B1A604A
:100D400004E0034A12688243014B1A6070470000B6
:100D50003038024029B1064A12680243044B1A6037
:100D600004E0034A12688243014B1A607047000096
:100D700044380240F0B5002100220024022500265C
:100D80000223324F3F6807F00C0121B1042905D03E
:100D9000082937D105E02E4F076036E02D4F076058
:100DA00033E02A4F3F1F3F68C7F38056274F3F1F4E
:100DB0003F6807F03F036EB1264FB7FBF3F7DFF84C
:100DC0008CC0ACF1040CDCF800C0CCF3881C07FB31
:100DD0000CF40CE01E4FB7FBF3F7DFF870C0ACF17A
:100DE000040CDCF800C0CCF3881C07FB0CF4174F94
:100DF0003F1F3F68C7F301477F1C7D00B4FBF5F739
:100E0000076002E0124F076000BF00BF0F4F3F684E
:100E100007F0F0010909104F7A5C0768D740476076
:100E20000A4F3F6807F4E051890A0B4F7A5C476824
:100E3000D7408760054F3F6807F46041490B064F74
:100E40007A5C4768D740C760F0BD000008380240B0
:100E50000024F40000127A00AB000020704700006C
:100E60000CB50020019000903448006840F48030B8
:100E70003249086000BF3148006800F4003000903B
:100E80000198401C0190009818B90198B0F5A04F46
:100E9000F1D12A48006800F4003010B10120009020
:100EA00001E0002000900098012846D123484030FE
:100EB000006840F0805021494031086020480068B7
:100EC00040F440401E4908601C48083000681B4937
:100ED000083108600846006840F400400860084691
:100EE000006840F4A05008601648091F0860081FF9
:100EF000006840F08070091F086000BF0F4800685C
:100F000000F000700028F9D040F205700E4908602A
:100F10000A480830006820F00300084908310860DA
:100F20000846006840F00200086000BF034808302F
:100F3000006800F00C000828F8D10CBD0038024011
:100F40000070004008544007003C0240042808D1CB
:100F50004FF0E021096941F004014FF0E0221161F6
:100F600007E04FF0E021096921F004014FF0E02291
:100F7000116170477047000010B51548006840F4D3
:100F80007000134908601348006840F001001149DF
:100F9000086000200F49083108600E4800680E49BB
:100FA00008400C4908600D48091D0860081F0068CA
:100FB00020F48020091F0860002006490C310860D9
:100FC000FFF74EFF4FF0006001498039086010BD07
:100FD00088ED00E000380240FFFFF6FE10300024EC
:100FE00010B540F225511D4800F04AF810B31B48D7
:100FF00000F000F9C4B21A48008800F40040C8B9F3
:101000001748008800F4804060B10A2C03D000200B
:101010001349088020E01248008840F4004010493D
:10102000088019E00D2C06D10D48008840F480405E
:101030000B49088010E00A480088C0F30D000949F8
:101040000C5407480088401C054908800846008861
:10105000C72801DD0020088010BD000000100140FD
:1010600008000020BC00002021B1828942F4005217
:10107000828104E082894DF6FF731A4082817047B5
:1010800070B50246002400230025002040F66A16B1
:10109000B14200D100BFC1F3421501F01F03012688
:1010A00006FA03F3012D02D19689334006E0022DA2
:1010B00002D1168A334001E0968A33400C12012691
:1010C00006FA04F41688344013B10CB1012000E094
:1010D000002070BDF0B50346002400260025002046
:1010E00040F66A17B94200D100BF1846C1F3421456
:1010F00001F01F06012707FA06F5012C01D10C307B
:1011000004E0022C01D1103000E014301AB107685D
:101110002F43076002E00768AF430760F0BD00009F
:101120002DE9FF4705460E460024A14600BFA04614
:10113000B08900B100BF2C8A24F44054F0880443E5
:101140002C82AC8941F20C608443B0883189084319
:10115000718908430443AC81AC8A24F44074B0899B
:101160000443AC826846FFF705FE2048854202D062
:101170001F48854202D1DDF80C9001E0DDF80890AF
:10118000A88900F4004040B109EBC90000EB091048
:1011900031684900B0FBF1F707E009EBC90000EB4B
:1011A000091031688900B0FBF1F76420B7FBF0F05B
:1011B00004012009642101FB1078A88900F4004093
:1011C00040B1322000EBC800B0FBF1F000F00700A6
:1011D000044308E0322000EB08106421B0FBF1F07A
:1011E00000F00F0004432C81BDE8FF870010014090
:1011F0000014014001468888C0F30800704700BF12
:10120000FEE730380A2801D20120704700207047DD
:10121000014600BF704700002DE9F04303460C462D
:10122000DFF8CCC0DCF800500020DFF8C8C0DCF8E4
:1012300000600027DFF8C0C09CF800C0BCF1000FC0
:1012400027D0DFF8B8C0DCF818908446401C43F87B
:101250002C90DFF8A8C0DCF814C0ACF10401DFF872
:10126000A0C0DCF800C0614513D3DFF894C0DCF8FF
:1012700000C0DFF89080D8F80080C4448C4508D3C3
:10128000102806D2A04204D28446401C43F82C10F9
:10129000012726E0D2F800C0ACF10401DFF860C0FD
:1012A000DCF800C061451AD3DFF854C0DCF800C098
:1012B000DFF85080D8F80080C4448C450FD3102844
:1012C0000DD2A0420BD2022805D127B1D3F804C019
:1012D0008C4500D104E08446401C43F82C1000BF2C
:1012E000121D05EB060C9445D4D8BDE8F083000030
:1012F000980000209C000020A9000020740200201B
:10130000A0000020A40000202DE9F0438DB0074686
:101310000E4635462C4620225D4905A8FFF736FAD1
:101320005C48D0F800805C48D0F800905B480078BA
:1013300048B95B4A5BA15DA0FEF7CCFF63A0FEF756
:10134000C9FF00BFFEE76248007848B1544A61A176
:1013500056A0FEF7BFFF5DA0FEF7BCFF00BFFEE793
:1013600001205B4908705EA0FEF7B4FF57A0FEF7AE
:10137000B1FF00F0F3F85B49086AFEF7ABFF53A03A
:10138000FEF7A8FF20352946384600F015FC054633
:101390002A464946404600F097F95249486AFEF706
:1013A00099FF4AA0FEF796FF4F49206808606068E1
:1013B0004860A0688860E068C8602069086160696A
:1013C0004861A0698861E069C8610846C068464A0A
:1013D00008999268079BCDE90132CDE90310424894
:1013E000406800904048069B026840A00599FEF7BF
:1013F00071FF36A0FEF76EFF3B48C1693A4A0C9870
:1014000092690B9BCDE90132CDE903013648406971
:10141000009035480A9B026934A00999FEF75AFFEB
:101420002AA0FEF757FF3CA0FEF754FF27A0FEF7C7
:1014300051FF494800682C4908624748001D007860
:1014400081F8240044481030006888624248401DFA
:10145000007881F82C0040481430006808633E484A
:10146000801D008888863C480830006888633A48B8
:101470000C300088C863384818300088086400F0D1
:1014800069F9284600F04CFB0DB0BDE8F083000080
:10149000E81C0008980000209C000020A800002004
:1014A000D41C0008696E69745F6F6B00282573296E
:1014B0002068617320617373657274206661696C62
:1014C00065642061742025732E0000000D0A000061
:1014D000A9000020216F6E5F6661756C74000000CA
:1014E000000000000C000020740200202020257362
:1014F0003A2025303878202025733A202530387856
:10150000202025733A2025303878202025733A2072
:1015100025303878000000003D3D3D3D3D3D3D3DDE
:101520003D3D3D3D3D3D3D3D3D3D3D3D3D3D3D3DEB
:101530003D3D3D3D3D3D3D3D3D3D3D3D3D3D3D3DDB
:101540003D3D3D3D3D3D3D3D3D3D3D3D3D3D3D3DCB
:101550003D3D3D3D3D3D000024ED00E010B5054919
:10156000054B064A08680649FEF7B4FE05A0FEF7DB
:10157000B1FE10BD0C000020C4010020A401002019
:10158000840100200D0A000070B504460E46154681
:10159000202221461048FFF752F9202231460F48F9
:1015A000FFF74DF9202229460D48FFF748F90D486D
:1015B0000D4908600D480968401A0D4908600D483A
:1015C0000D4908600D480968401A0D49086001205E
:1015D0000C49087070BD000084010020A4010020A7
:1015E000C4010020180500209800002018090020E0
:1015F0009C00002000000008A000002044260008F5
:10160000A4000020A800002010B504466FF00400DC
:10161000FFF79CFCE11704EB5171C1F3C701074AC6
:1016200011701046007800EB4001C1EBC0104FF67E
:10163000FF7101EAC0000249088010BD00000020CF
:101640000200002070B504464FF4077094FBF0F0E0
:10165000C6B24FF4077094FBF0F100FB114085B265
:1016600005E04FF4077000F009F8701EC6B2002EB6
:10167000F7D115B1284600F001F870BD0146114AB6
:1016800012884A434FF0E0235A6100229A611A46B9
:10169000126942F001021A6100BF4FF0E0221069A6
:1016A00000F001021AB100F48032002AF5D04FF0A8
:1016B000E022126922F001024FF0E0231A610022B9
:1016C0009A6170470200002070B505460E46144628
:1016D0000D490869FEF7FEFD0CA0FEF7FBFD08E0D2
:1016E00021460BA02268FEF7F5FD08A0FEF7F2FDEB
:1016F000241DA819A042F3D80CA0FEF7EBFD03A00F
:10170000FEF7E8FD70BD00000C0000200D0A00008F
:101710002020616464723A2025303878202020200F
:10172000646174613A202530387800003D3D3D3DCC
:101730003D3D3D3D3D3D3D3D3D3D3D3D3D3D3D3DD9
:101740003D3D3D3D3D3D3D3D3D3D3D3D3D3D3D3DC9
:101750000000000010B5BD4890F83800C0F340000C
:1017600030B1BB49886AFEF7B5FDBAA0FEF7B2FDFD
:10177000B648806BC0F3807000287DD0B34890F8E5
:10178000240000285BD0B14890F8240000F001004C
:1017900030B1AF49C86AFEF79DFDAEA0FEF79AFDD5
:1017A000AA4890F82400C0F3400030B1A849086B63
:1017B000FEF790FDA7A0FEF78DFDA44890F8240049
:1017C000C0F3C00030B1A249486BFEF783FDA1A071
:1017D000FEF780FD9D4890F82400C0F3001030B162
:1017E0009B49886BFEF776FD9AA0FEF773FD97483C
:1017F00090F82400C0F3401030B19549C86BFEF753
:1018000069FD94A0FEF766FD904890F82400C00999
:10181000A8B18E4890F8240000F0010028B98B4848
:1018200090F82400C0F3400048B1884A916A884A81
:10183000D2F88400FEF74EFD86A0FEF74BFD8348EC
:1018400090F82C00002864D0804890F82C0000F01C
:10185000010030B17E49086CFEF73CFD7DA0FEF72B
:1018600039FD7A4890F82C00C0F3400040B1784927
:10187000486CFEF72FFD00E09BE076A0FEF72AFD06
:10188000724890F82C00C0F3800030B17049886C29
:10189000FEF720FD6FA0FEF71DFD6C4890F82C00B0
:1018A000C0F3C00030B16A49C86CFEF713FD69A0EF
:1018B000FEF710FD654890F82C00C0F3001030B121
:1018C0006349086DFEF706FD62A0FEF703FD5F4861
:1018D00090F82C00C0F3401030B15D49486DFEF720
:1018E000F9FC5CA0FEF7F6FC584890F82C00C00903
:1018F00078B1564890F82C00C0F3400048B1534AE4
:10190000116B534AD2F88800FEF7E4FC51A0FEF7B1
:10191000E1FC4E48808E00284BD04C4890F83400B3
:1019200000F0010030B14A49886DFEF7D3FC49A0B0
:10193000FEF7D0FC454890F83400C0F3400030B1C9
:101940004349C86DFEF7C6FC42A0FEF7C3FC3F4802
:1019500090F83400C0F3800030B13D49086EFEF7C6
:10196000B9FC3CA0FEF7B6FC384890F83400C0F350
:10197000C00030B13649486EFEF7ACFC35A0FEF72A
:10198000A9FC3248808EC0F3002030B13049886E07
:10199000FEF7A0FC2FA0FEF79DFC2C48808EC0F324
:1019A000402030B12A49C86EFEF794FC29A0FEF70A
:1019B00091FC2648806BC00F002845D02348C06B9F
:1019C000002841D0214890F83C0000F0010030B1DF
:1019D0001F49086FFEF77EFC1EA0FEF77BFC1B482C
:1019E00090F83C00C0F3400030B11949486FFEF751
:1019F00071FC18A0FEF76EFC144890F83C00C0F390
:101A0000800030B11249886FFEF764FC11A0FEF728
:101A100061FC0E4890F83C00C0F3C00030B10C49A6
:101A2000C86FFEF757FC0BA0FEF754FC074890F870
:101A30003C00C0F3001038B10549D1F88000FEF732
:101A400049FC04A0FEF746FC10BD00007402002013
:101A50000C0000200D0A00002DE9F041074C206821
:101A600040F0100020600A27002597FBF5F631466C
:101A700003A0FEF72FFCBDE8F081000014ED00E0AC
:101A80007A3A25640A00000000BF054A128802F075
:101A90004002002AF9D0C2B2014B9A807047000080
:101AA00000100140A820FFF7AFFDFFF7E1F84FF469
:101AB000E13000F093F812A213A115A0FFF764FD26
:101AC000FFF7CAFF1BE04FF400711448FFF7CCF892
:101AD0004FF480611148FFF7C9F84FF4FA70FFF72F
:101AE000B1FD4FF400710D48FFF7C0F84FF480616D
:101AF0000A48FFF7B9F84FF4FA70FFF7A3FDE2E7E1
:101B000056302E312E30000056312E302E3000004F
:101B1000436D4261636B747261636500001402403F
:101B200070B592B006460025402102A8FEF760FE7F
:101B30003246102102A8FFF76FFB0546002410E093
:101B400002A951F8242004EBC401134BC81813A1B7
:101B5000FEF7CCFB202104EBC40008300E4A1154E0
:101B6000641CAC42ECD36DB10B4805EBC5030D49C9
:101B700000900DA248690E49FEF7ACFB0DA0FEF7E0
:101B8000A9FB06E007498869FEF7A4FB09A0FEF758
:101B9000A1FB12B070BD0000E40100202530386CBC
:101BA000780000000C0000202E6178660000000024
:101BB000840100200D0A00000246012020EA1210D4
:101BC000054B187018460078012802D101F1480031
:101BD00070470846FCE70000AA00002010B588B056
:101BE000044601210846FFF7A5F801211020FFF760
:101BF000B1F8072209212248FFF713F807220A212A
:101C00001F48FFF70EF84FF4C060069002208DF8D1
:101C10001C008DF81D0000208DF81E0001208DF89D
:101C20001F0006A91648FEF7B4FF02940020ADF885
:101C30000C00ADF80E00ADF81000ADF814000C204B
:101C4000ADF8120002A90F48FFF76AFA01210D480A
:101C5000FFF70AFA012240F225510A48FFF73AFA43
:101C600025208DF8040003208DF805008DF806006E
:101C700001208DF8070001A8FFF71EF808B010BD7D
:101C8000000002400010014010B500290AD0087879
:101C9000002807D005487844FEF738FF002801D017
:101CA000002010BD0248784410BD00009E080000CE
:101CB000960800004FF04070E1EE100A70470000F7
:101CC000636D5F6261636B74726163655F6173739F
:101CD00065727400636D5F6261636B7472616365EA
:101CE0005F6661756C7400004C1D0008501D000893
:101CF000541D0008581D00081C1E0008601D000827
:101D00005C1D0008E01E000800000000000000004C
:101D10003031323334353637383941424344454621
:101D2000403058003031323334353637383961621B
:101D3000636465664030780004000008000000001D
:101D400000000002000100001000000052302000DE
:101D500052312000523220005233200050432000E4
:101D60004C5220005573616765206661756C742064
:101D7000697320636175736564206279206174748E
:101D8000656D70747320746F207377697463682055
:101D9000746F20616E20696E76616C696420737463
:101DA0006174652028652E672E2C2041524D290034
:101DB0005573616765206661756C74206973206373
:101DC000617573656420627920496E64696361742A
:101DD0006573206120646976696465206279207A80
:101DE00065726F206861732074616B656E20706C22
:101DF000616365202863616E2062652073657420CD
:101E00006F6E6C79206966204449565F305F54528A
:101E1000502069732073657429000000523132002C
:101E20003D3D3D3D3D2054687265616420737461A1
:101E3000636B20696E666F726D6174696F6E203DB1
:101E40003D3D3D3D000000003D3D3D3D3D3D204DC3
:101E500061696E20737461636B20696E666F726D69
:101E60006174696F6E203D3D3D3D3D3D00000000C9
:101E70003D3D3D3D3D3D3D3D3D3D3D3D3D3D3D3D92
:101E80003D3D3D2052656769737465727320696ECC
:101E9000666F726D6174696F6E203D3D3D3D3D3DE5
:101EA0003D3D3D3D3D3D3D3D3D3D3D3D3D3D0000DC
:101EB0004465627567206661756C74206973206380
:101EC00061757365642062792068616C7420726545
:101ED0007175657374656420696E204E56494300C0
:101EE000505352004465627567206661756C7420BA
:101EF0006973206361757365642062792044575467
:101F0000206D61746368206F63637572726564002D
:101F10004465627567206661756C7420697320631F
:101F2000617573656420627920566563746F7220F1
:101F30006665746368206F63637572726564000020
:101F40004465627567206661756C742069732063EF
:101F5000617573656420627920454442475251207F
:101F60007369676E616C2061737365727465640078
:101F70004465627567206661756C742069732063BF
:101F8000617573656420627920424B505420696EFC
:101F9000737472756374696F6E20657865637574A8
:101FA000656400005573616765206661756C742017
:101FB00069732063617573656420627920696E645A
:101FC000696361746573207468617420616E207543
:101FD0006E616C69676E656420616363657373200D
:101FE0006661756C74206861732074616B656E2026
:101FF000706C616365000000486172642066617501
:102000006C74206973206361757365642062792044
:102010006661696C656420766563746F72206665BD
:1020200074636800427573206661756C742069730F
:1020300020636175736564206279207072656369DD
:1020400073652064617461206163636573732076D6
:10205000696F6C6174696F6E0000000042757320D7
:102060006661756C742069732063617573656420A3
:10207000627920696D70726563697365206461744B
:1020800061206163636573732076696F6C61746945
:102090006F6E00004D656D6F7279206D616E6167C6
:1020A000656D656E74206661756C7420697320635C
:1020B0006175736564206279206461746120616375
:1020C000636573732076696F6C6174696F6E00006D
:1020D000427573206661756C742069732063617545
:1020E00073656420627920696E73747275637469B4
:1020F0006F6E206163636573732076696F6C6174C2
:10210000696F6E004D656D6F7279206D616E6167EC
:10211000656D656E74206661756C742069732063EB
:10212000617573656420627920696E73747275637A
:1021300074696F6E206163636573732076696F6C79
:102140006174696F6E000000427573206661756C82
:1021500074206973206361757365642062792066F9
:102160006C6F6174696E672D706F696E74206C613D
:102170007A79207374617465207072657365727604
:102180006174696F6E0000004D656D6F7279206D2E
:10219000616E6167656D656E74206661756C742033
:1021A00069732063617573656420627920666C6F62
:1021B0006174696E672D706F696E74206C617A79D5
:1021C00020737461746520707265736572766174D2
:1021D000696F6E005573616765206661756C742068
:1021E000697320636175736564206279206174741A
:1021F000656D70747320746F2065786563757465A0
:1022000020616E20756E646566696E656420696E16
:10221000737472756374696F6E0000005573616743
:1022200065206661756C74206973206361757365E0
:102230006420627920617474656D70747320746FAA
:102240002065786563757465206120636F70726FB7
:10225000636573736F7220696E73747275637469EA
:102260006F6E00005573616765206661756C742040
:102270006973206361757365642062792061747489
:10228000656D70747320746F20646F20616E2065BB
:102290007863657074696F6E207769746820612057
:1022A0006261642076616C756520696E2074686572
:1022B000204558435F52455455524E206E756D620D
:1022C00065720000427573206661756C74206973D5
:1022D0002063617573656420627920737461636B38
:1022E000696E67206572726F720000004D656D6FD8
:1022F0007279206D616E6167656D656E74206661CF
:10230000756C7420697320636175736564206279EC
:1023100020737461636B696E67206572726F7200FF
:10232000427573206661756C7420697320636175F2
:1023300073656420627920756E737461636B696E76
:1023400067206572726F72004D656D6F7279206DD6
:10235000616E6167656D656E74206661756C742071
:1023600069732063617573656420627920756E738B
:102370007461636B696E67206572726F7200000032
:1023800044756D702063616C6C20737461636B20A5
:1023900068617320616E206572726F7200000000C8
:1023A0004669726D77617265206E616D653A2025B0
:1023B000732C206861726477617265207665727330
:1023C000696F6E3A2025732C20736F667477617283
:1023D000652076657273696F6E3A20257300000080
:1023E0004661756C74206F6E20746872656164203C
:1023F00025730000417373657274206F6E207468DA
:10240000726561642025730053686F77206D6F7269
:10241000652063616C6C20737461636B20696E6608
:102420006F2062792072756E3A2061646472326C3A
:10243000696E65202D652025732573202D61202D63
:102440006620252E2A7300004661756C74206F6E1D
:1024500020696E74657272757074206F722062618B
:102460007265206D6574616C286E6F204F53292052
:10247000656E7669726F6E6D656E7400417373651B
:102480007274206F6E20696E74657272757074203C
:102490006F722062617265206D6574616C286E6F69
:1024A000204F532920656E7669726F6E6D656E746C
:1024B0000000000054686520627573206661756CC9
:1024C00074206F6363757272656420616464726501
:1024D00073732069732025303878000054686520B4
:1024E0006D656D6F7279206D616E6167656D656E8A
:1024F00074206661756C74206F63637572726564B5
:1025000020616464726573732069732025303878A4
:10251000000000004426000800000020BC0000006D
:10252000C401000800270008BC0000205C0800006F
:10253000E00100081001000043000000F8FFFFFF69
:1025400000404040404040404040414141414140C6
:10255000404040404040404040404040404040407B
:10256000400502020202020202020202020202020A
:10257000022020202020202020202002020202020F
:102580000202909090909090101010101010101067
:102590001010101010101010101010100202020273
:1025A00002028888888888880808080808080808B7
:1025B00008080808080808080808080802020202B3
:1025C00040000000000000000000000000000000CB
:1025D00000000000000000000000000000000000FB
:1025E00000000000000000000000000000000000EB
:1025F00000000000000000000000000000000000DB
:1026000000000000000000000000000000000000CA
:1026100000000000000000000000000000000000BA
:1026200000000000000000000000000000000000AA
:10263000000000000000000000000000000000009A
:10264000000000000000000000000000000000008A
:10265000A0230008F42300087C240008201E0008A2
:10266000481E00080824000880230008E023000812
:1026700048240008701E0008F81F00080421000804
:102680009420000848230008EC2200088821000854
:10269000D0200008242000085C2000082023000827
:1026A000C422000848210008D4210008641D000845
:1026B000642200081C220008A41F0008B01D0008A6
:1026C000B01E0008701F0008E41E0008101F00085C
:1026D000401F0008DC240008B424000800000000AB
:1026E00000000000000000000000000000000000EA
:1026F00000000001020304010203040607080900A8
:040000050800018965
:00000001FF
